{
  "contractName": "Crowdsale",
  "abi": [
    {
      "constant": true,
      "inputs": [],
      "name": "rate",
      "outputs": [
        {
          "name": "",
          "type": "uint256"
        }
      ],
      "payable": false,
      "stateMutability": "view",
      "type": "function"
    },
    {
      "constant": true,
      "inputs": [],
      "name": "endTime",
      "outputs": [
        {
          "name": "",
          "type": "uint256"
        }
      ],
      "payable": false,
      "stateMutability": "view",
      "type": "function"
    },
    {
      "constant": true,
      "inputs": [],
      "name": "weiRaised",
      "outputs": [
        {
          "name": "",
          "type": "uint256"
        }
      ],
      "payable": false,
      "stateMutability": "view",
      "type": "function"
    },
    {
      "constant": true,
      "inputs": [],
      "name": "wallet",
      "outputs": [
        {
          "name": "",
          "type": "address"
        }
      ],
      "payable": false,
      "stateMutability": "view",
      "type": "function"
    },
    {
      "constant": true,
      "inputs": [],
      "name": "startTime",
      "outputs": [
        {
          "name": "",
          "type": "uint256"
        }
      ],
      "payable": false,
      "stateMutability": "view",
      "type": "function"
    },
    {
      "constant": true,
      "inputs": [],
      "name": "token",
      "outputs": [
        {
          "name": "",
          "type": "address"
        }
      ],
      "payable": false,
      "stateMutability": "view",
      "type": "function"
    },
    {
      "inputs": [
        {
          "name": "_startTime",
          "type": "uint256"
        },
        {
          "name": "_endTime",
          "type": "uint256"
        },
        {
          "name": "_rate",
          "type": "uint256"
        },
        {
          "name": "_wallet",
          "type": "address"
        },
        {
          "name": "_token",
          "type": "address"
        }
      ],
      "payable": false,
      "stateMutability": "nonpayable",
      "type": "constructor"
    },
    {
      "payable": true,
      "stateMutability": "payable",
      "type": "fallback"
    },
    {
      "anonymous": false,
      "inputs": [
        {
          "indexed": true,
          "name": "purchaser",
          "type": "address"
        },
        {
          "indexed": true,
          "name": "beneficiary",
          "type": "address"
        },
        {
          "indexed": false,
          "name": "value",
          "type": "uint256"
        },
        {
          "indexed": false,
          "name": "amount",
          "type": "uint256"
        }
      ],
      "name": "TokenPurchase",
      "type": "event"
    },
    {
      "constant": false,
      "inputs": [
        {
          "name": "beneficiary",
          "type": "address"
        }
      ],
      "name": "buyTokens",
      "outputs": [],
      "payable": true,
      "stateMutability": "payable",
      "type": "function"
    },
    {
      "constant": true,
      "inputs": [],
      "name": "hasEnded",
      "outputs": [
        {
          "name": "",
          "type": "bool"
        }
      ],
      "payable": false,
      "stateMutability": "view",
      "type": "function"
    }
  ],
  "bytecode": "0x6060604052341561000f57600080fd5b60405160a0806107598339810160405280805190602001909190805190602001909190805190602001909190805190602001909190805190602001909190505042851015151561005e57600080fd5b84841015151561006d57600080fd5b60008311151561007c57600080fd5b600073ffffffffffffffffffffffffffffffffffffffff168273ffffffffffffffffffffffffffffffffffffffff16141515156100b857600080fd5b600073ffffffffffffffffffffffffffffffffffffffff168173ffffffffffffffffffffffffffffffffffffffff16141515156100f457600080fd5b84600181905550836002819055508260048190555081600360006101000a81548173ffffffffffffffffffffffffffffffffffffffff021916908373ffffffffffffffffffffffffffffffffffffffff160217905550806000806101000a81548173ffffffffffffffffffffffffffffffffffffffff021916908373ffffffffffffffffffffffffffffffffffffffff16021790555050505050506105bb8061019e6000396000f30060606040526004361061008e576000357c0100000000000000000000000000000000000000000000000000000000900463ffffffff1680632c4e722e146100995780633197cbb6146100c25780634042b66f146100eb578063521eb2731461011457806378e9792514610169578063ec8ac4d814610192578063ecb70fb7146101c0578063fc0c546a146101ed575b61009733610242565b005b34156100a457600080fd5b6100ac610412565b6040518082815260200191505060405180910390f35b34156100cd57600080fd5b6100d5610418565b6040518082815260200191505060405180910390f35b34156100f657600080fd5b6100fe61041e565b6040518082815260200191505060405180910390f35b341561011f57600080fd5b610127610424565b604051808273ffffffffffffffffffffffffffffffffffffffff1673ffffffffffffffffffffffffffffffffffffffff16815260200191505060405180910390f35b341561017457600080fd5b61017c61044a565b6040518082815260200191505060405180910390f35b6101be600480803573ffffffffffffffffffffffffffffffffffffffff16906020019091905050610242565b005b34156101cb57600080fd5b6101d3610450565b604051808215151515815260200191505060405180910390f35b34156101f857600080fd5b61020061045c565b604051808273ffffffffffffffffffffffffffffffffffffffff1673ffffffffffffffffffffffffffffffffffffffff16815260200191505060405180910390f35b600080600073ffffffffffffffffffffffffffffffffffffffff168373ffffffffffffffffffffffffffffffffffffffff161415151561028157600080fd5b610289610481565b151561029457600080fd5b3491506102a0826104b4565b90506102b7826005546104d290919063ffffffff16565b6005819055506000809054906101000a900473ffffffffffffffffffffffffffffffffffffffff1673ffffffffffffffffffffffffffffffffffffffff166340c10f1984836040518363ffffffff167c0100000000000000000000000000000000000000000000000000000000028152600401808373ffffffffffffffffffffffffffffffffffffffff1673ffffffffffffffffffffffffffffffffffffffff16815260200182815260200192505050602060405180830381600087803b151561038057600080fd5b5af1151561038d57600080fd5b50505060405180519050508273ffffffffffffffffffffffffffffffffffffffff163373ffffffffffffffffffffffffffffffffffffffff167f623b3804fa71d67900d064613da8f94b9617215ee90799290593e1745087ad188484604051808381526020018281526020019250505060405180910390a361040d6104f0565b505050565b60045481565b60025481565b60055481565b600360009054906101000a900473ffffffffffffffffffffffffffffffffffffffff1681565b60015481565b60006002544211905090565b6000809054906101000a900473ffffffffffffffffffffffffffffffffffffffff1681565b6000806000600154421015801561049a57506002544211155b9150600034141590508180156104ad5750805b9250505090565b60006104cb6004548361055490919063ffffffff16565b9050919050565b60008082840190508381101515156104e657fe5b8091505092915050565b600360009054906101000a900473ffffffffffffffffffffffffffffffffffffffff1673ffffffffffffffffffffffffffffffffffffffff166108fc349081150290604051600060405180830381858888f19350505050151561055257600080fd5b565b60008060008414156105695760009150610588565b828402905082848281151561057a57fe5b0414151561058457fe5b8091505b50929150505600a165627a7a72305820fe97b129e449d9ce14b32539dc6100d0b7e99f5d1ad6e10d2414aeecb8256a110029",
  "source": "pragma solidity ^0.4.18;\r\n\r\nimport '../node_modules/zeppelin-solidity/contracts/token/ERC20/CappedToken.sol';\r\nimport \"../node_modules/zeppelin-solidity/contracts/math/SafeMath.sol\";\r\n\r\n//newer version than from npm, downloaded from github\r\n\r\n\r\n/**\r\n * @title Crowdsale\r\n * @dev Crowdsale is a base contract for managing a token crowdsale.\r\n * Crowdsales have a start and end timestamps, where investors can make\r\n * token purchases and the crowdsale will assign them tokens based\r\n * on a token per ETH rate. Funds collected are forwarded to a wallet\r\n * as they arrive. The contract requires a MintableToken that will be\r\n * minted as contributions arrive, note that the crowdsale contract\r\n * must be owner of the token in order to be able to mint it.\r\n */\r\ncontract Crowdsale {\r\n  using SafeMath for uint256;\r\n\r\n  // The token being sold\r\n  MintableToken public token;\r\n\r\n  // start and end timestamps where investments are allowed (both inclusive)\r\n  uint256 public startTime;\r\n  uint256 public endTime;\r\n\r\n  // address where funds are collected\r\n  address public wallet;\r\n\r\n  // how many token units a buyer gets per wei\r\n  uint256 public rate;\r\n\r\n  // amount of raised money in wei\r\n  uint256 public weiRaised;\r\n\r\n  /**\r\n   * event for token purchase logging\r\n   * @param purchaser who paid for the tokens\r\n   * @param beneficiary who got the tokens\r\n   * @param value weis paid for purchase\r\n   * @param amount amount of tokens purchased\r\n   */\r\n  event TokenPurchase(address indexed purchaser, address indexed beneficiary, uint256 value, uint256 amount);\r\n\r\n\r\n  function Crowdsale(uint256 _startTime, uint256 _endTime, uint256 _rate, address _wallet, CappedToken _token) public {\r\n    require(_startTime >= now);\r\n    require(_endTime >= _startTime);\r\n    require(_rate > 0);\r\n    require(_wallet != address(0));\r\n    require(_token != address(0));\r\n\r\n    startTime = _startTime;\r\n    endTime = _endTime;\r\n    rate = _rate;\r\n    wallet = _wallet;\r\n    token = _token;\r\n  }\r\n\r\n  // fallback function can be used to buy tokens\r\n  function () external payable {\r\n    buyTokens(msg.sender);\r\n  }\r\n\r\n  // low level token purchase function\r\n  function buyTokens(address beneficiary) public payable {\r\n    require(beneficiary != address(0));\r\n    require(validPurchase());\r\n\r\n    uint256 weiAmount = msg.value;\r\n\r\n    // calculate token amount to be created\r\n    uint256 tokens = getTokenAmount(weiAmount);\r\n\r\n    // update state\r\n    weiRaised = weiRaised.add(weiAmount);\r\n\r\n    token.mint(beneficiary, tokens);\r\n    TokenPurchase(msg.sender, beneficiary, weiAmount, tokens);\r\n\r\n    forwardFunds();\r\n  }\r\n\r\n  // @return true if crowdsale event has ended\r\n  function hasEnded() public view returns (bool) {\r\n    return now > endTime;\r\n  }\r\n\r\n  // Override this method to have a way to add business logic to your crowdsale when buying\r\n  function getTokenAmount(uint256 weiAmount) internal view returns(uint256) {\r\n    return weiAmount.mul(rate);\r\n  }\r\n\r\n  // send ether to the fund collection wallet\r\n  // override to create custom fund forwarding mechanisms\r\n  function forwardFunds() internal {\r\n    wallet.transfer(msg.value);\r\n  }\r\n\r\n  // @return true if the transaction can buy tokens\r\n  function validPurchase() internal view returns (bool) {\r\n    bool withinPeriod = now >= startTime && now <= endTime;\r\n    bool nonZeroPurchase = msg.value != 0;\r\n    return withinPeriod && nonZeroPurchase;\r\n  }\r\n\r\n}",
  "sourcePath": "/home/one1up/Projects/IcoGenerator/contracts/Crowdsale.sol",
  "compiler": {
    "name": "solc",
    "version": "0.4.21+commit.dfe3193c.Emscripten.clang"
  },
  "schemaVersion": "2.0.0",
  "updatedAt": "2018-05-04T16:11:44.362Z"
}