{
  "contractName": "SaleRegistry",
  "abi": [
    {
      "constant": true,
      "inputs": [
        {
          "name": "",
          "type": "uint256"
        }
      ],
      "name": "tokens",
      "outputs": [
        {
          "name": "name",
          "type": "string"
        },
        {
          "name": "url",
          "type": "string"
        },
        {
          "name": "tokenAddress",
          "type": "address"
        },
        {
          "name": "saleAddress",
          "type": "address"
        },
        {
          "name": "timeAdded",
          "type": "uint256"
        }
      ],
      "payable": false,
      "stateMutability": "view",
      "type": "function"
    },
    {
      "constant": true,
      "inputs": [],
      "name": "owner",
      "outputs": [
        {
          "name": "",
          "type": "address"
        }
      ],
      "payable": false,
      "stateMutability": "view",
      "type": "function"
    },
    {
      "inputs": [],
      "payable": false,
      "stateMutability": "nonpayable",
      "type": "constructor"
    },
    {
      "anonymous": false,
      "inputs": [
        {
          "indexed": false,
          "name": "number",
          "type": "uint256"
        }
      ],
      "name": "newTokenSale",
      "type": "event"
    },
    {
      "constant": false,
      "inputs": [
        {
          "name": "_rate",
          "type": "uint256"
        },
        {
          "name": "_wallet",
          "type": "address"
        },
        {
          "name": "_supply",
          "type": "uint256"
        },
        {
          "name": "_name",
          "type": "string"
        },
        {
          "name": "_symbol",
          "type": "string"
        },
        {
          "name": "_url",
          "type": "string"
        }
      ],
      "name": "addToken",
      "outputs": [],
      "payable": false,
      "stateMutability": "nonpayable",
      "type": "function"
    },
    {
      "constant": true,
      "inputs": [
        {
          "name": "number",
          "type": "uint256"
        }
      ],
      "name": "getToken",
      "outputs": [
        {
          "name": "name",
          "type": "string"
        },
        {
          "name": "url",
          "type": "string"
        },
        {
          "name": "tokenAddress",
          "type": "address"
        },
        {
          "name": "saleAddress",
          "type": "address"
        },
        {
          "name": "timeAdded",
          "type": "uint256"
        }
      ],
      "payable": false,
      "stateMutability": "view",
      "type": "function"
    }
  ],
  "bytecode": "0x6060604052341561000f57600080fd5b336000806101000a81548173ffffffffffffffffffffffffffffffffffffffff021916908373ffffffffffffffffffffffffffffffffffffffff1602179055506130b08061005e6000396000f30060606040526004361062000067576000357c0100000000000000000000000000000000000000000000000000000000900463ffffffff1680634f64b2be146200006c5780638da5cb5b14620001ea578063a486bf4c1462000242578063e4b50cb81462000359575b600080fd5b34156200007857600080fd5b620000906004808035906020019091905050620004d7565b6040518080602001806020018673ffffffffffffffffffffffffffffffffffffffff1673ffffffffffffffffffffffffffffffffffffffff1681526020018573ffffffffffffffffffffffffffffffffffffffff1673ffffffffffffffffffffffffffffffffffffffff168152602001848152602001838103835288818151815260200191508051906020019080838360005b838110156200014057808201518184015260208101905062000123565b50505050905090810190601f1680156200016e5780820380516001836020036101000a031916815260200191505b50838103825287818151815260200191508051906020019080838360005b83811015620001a95780820151818401526020810190506200018c565b50505050905090810190601f168015620001d75780820380516001836020036101000a031916815260200191505b5097505050505050505060405180910390f35b3415620001f657600080fd5b6200020062000695565b604051808273ffffffffffffffffffffffffffffffffffffffff1673ffffffffffffffffffffffffffffffffffffffff16815260200191505060405180910390f35b34156200024e57600080fd5b62000357600480803590602001909190803573ffffffffffffffffffffffffffffffffffffffff1690602001909190803590602001909190803590602001908201803590602001908080601f0160208091040260200160405190810160405280939291908181526020018383808284378201915050505050509190803590602001908201803590602001908080601f0160208091040260200160405190810160405280939291908181526020018383808284378201915050505050509190803590602001908201803590602001908080601f01602080910402602001604051908101604052809392919081815260200183838082843782019150505050505091905050620006ba565b005b34156200036557600080fd5b6200037d600480803590602001909190505062000a17565b6040518080602001806020018673ffffffffffffffffffffffffffffffffffffffff1673ffffffffffffffffffffffffffffffffffffffff1681526020018573ffffffffffffffffffffffffffffffffffffffff1673ffffffffffffffffffffffffffffffffffffffff168152602001848152602001838103835288818151815260200191508051906020019080838360005b838110156200042d57808201518184015260208101905062000410565b50505050905090810190601f1680156200045b5780820380516001836020036101000a031916815260200191505b50838103825287818151815260200191508051906020019080838360005b838110156200049657808201518184015260208101905062000479565b50505050905090810190601f168015620004c45780820380516001836020036101000a031916815260200191505b5097505050505050505060405180910390f35b600181815481101515620004e757fe5b9060005260206000209060050201600091509050806000018054600181600116156101000203166002900480601f016020809104026020016040519081016040528092919081815260200182805460018160011615610100020316600290048015620005975780601f106200056b5761010080835404028352916020019162000597565b820191906000526020600020905b8154815290600101906020018083116200057957829003601f168201915b505050505090806001018054600181600116156101000203166002900480601f016020809104026020016040519081016040528092919081815260200182805460018160011615610100020316600290048015620006395780601f106200060d5761010080835404028352916020019162000639565b820191906000526020600020905b8154815290600101906020018083116200061b57829003601f168201915b5050505050908060020160009054906101000a900473ffffffffffffffffffffffffffffffffffffffff16908060030160009054906101000a900473ffffffffffffffffffffffffffffffffffffffff16908060040154905085565b6000809054906101000a900473ffffffffffffffffffffffffffffffffffffffff1681565b60008060009054906101000a900473ffffffffffffffffffffffffffffffffffffffff1673ffffffffffffffffffffffffffffffffffffffff163373ffffffffffffffffffffffffffffffffffffffff161415156200071857600080fd5b86868686866200072762000bfc565b808681526020018573ffffffffffffffffffffffffffffffffffffffff1673ffffffffffffffffffffffffffffffffffffffff1681526020018481526020018060200180602001838103835285818151815260200191508051906020019080838360005b83811015620007a85780820151818401526020810190506200078b565b50505050905090810190601f168015620007d65780820380516001836020036101000a031916815260200191505b50838103825284818151815260200191508051906020019080838360005b8381101562000811578082015181840152602081019050620007f4565b50505050905090810190601f1680156200083f5780820380516001836020036101000a031916815260200191505b50975050505050505050604051809103906000f08015156200086057600080fd5b90506001805480600101828162000878919062000c0d565b9160005260206000209060050201600060a0604051908101604052808881526020018681526020018573ffffffffffffffffffffffffffffffffffffffff1673ffffffffffffffffffffffffffffffffffffffff1681526020018573ffffffffffffffffffffffffffffffffffffffff16815260200142815250909190915060008201518160000190805190602001906200091592919062000c42565b5060208201518160010190805190602001906200093492919062000c42565b5060408201518160020160006101000a81548173ffffffffffffffffffffffffffffffffffffffff021916908373ffffffffffffffffffffffffffffffffffffffff16021790555060608201518160030160006101000a81548173ffffffffffffffffffffffffffffffffffffffff021916908373ffffffffffffffffffffffffffffffffffffffff160217905550608082015181600401555050507ff1d6e3d2f86e887a330df781c94c9b3cd43a633b2c5da71a62b327b1ea15500460018080549050036040518082815260200191505060405180910390a150505050505050565b62000a2162000cc9565b62000a2b62000cc9565b60008060008060018781548110151562000a4157fe5b9060005260206000209060050201905080600001816001018260020160009054906101000a900473ffffffffffffffffffffffffffffffffffffffff168360030160009054906101000a900473ffffffffffffffffffffffffffffffffffffffff168460040154848054600181600116156101000203166002900480601f01602080910402602001604051908101604052809291908181526020018280546001816001161561010002031660029004801562000b415780601f1062000b155761010080835404028352916020019162000b41565b820191906000526020600020905b81548152906001019060200180831162000b2357829003601f168201915b50505050509450838054600181600116156101000203166002900480601f01602080910402602001604051908101604052809291908181526020018280546001816001161561010002031660029004801562000be15780601f1062000bb55761010080835404028352916020019162000be1565b820191906000526020600020905b81548152906001019060200180831162000bc357829003601f168201915b50505050509350955095509550955095505091939590929450565b6040516122978062000dee83390190565b81548183558181151162000c3d5760050281600502836000526020600020918201910162000c3c919062000cdd565b5b505050565b828054600181600116156101000203166002900490600052602060002090601f016020900481019282601f1062000c8557805160ff191683800117855562000cb6565b8280016001018555821562000cb6579182015b8281111562000cb557825182559160200191906001019062000c98565b5b50905062000cc5919062000d79565b5090565b602060405190810160405280600081525090565b62000d7691905b8082111562000d72576000808201600062000d00919062000da1565b60018201600062000d12919062000da1565b6002820160006101000a81549073ffffffffffffffffffffffffffffffffffffffff02191690556003820160006101000a81549073ffffffffffffffffffffffffffffffffffffffff021916905560048201600090555060050162000ce4565b5090565b90565b62000d9e91905b8082111562000d9a57600081600090555060010162000d80565b5090565b90565b50805460018160011615610100020316600290046000825580601f1062000dc9575062000dea565b601f01602090049060005260206000209081019062000de9919062000d79565b5b5056006060604052341561000f57600080fd5b6040516122973803806122978339810160405280805190602001909190805190602001909190805190602001909190805182019190602001805182019190505042640757b12c00420186868686866100656102a7565b808481526020018060200180602001838103835285818151815260200191508051906020019080838360005b838110156100ac578082015181840152602081019050610091565b50505050905090810190601f1680156100d95780820380516001836020036101000a031916815260200191505b50838103825284818151815260200191508051906020019080838360005b838110156101125780820151818401526020810190506100f7565b50505050905090810190601f16801561013f5780820380516001836020036101000a031916815260200191505b5095505050505050604051809103906000f080151561015d57600080fd5b42851015151561016c57600080fd5b84841015151561017b57600080fd5b60008311151561018a57600080fd5b600073ffffffffffffffffffffffffffffffffffffffff168273ffffffffffffffffffffffffffffffffffffffff16141515156101c657600080fd5b600073ffffffffffffffffffffffffffffffffffffffff168173ffffffffffffffffffffffffffffffffffffffff161415151561020257600080fd5b84600181905550836002819055508260048190555081600360006101000a81548173ffffffffffffffffffffffffffffffffffffffff021916908373ffffffffffffffffffffffffffffffffffffffff160217905550806000806101000a81548173ffffffffffffffffffffffffffffffffffffffff021916908373ffffffffffffffffffffffffffffffffffffffff160217905550505050505050505050506102b7565b604051611a168061088183390190565b6105bb806102c66000396000f30060606040526004361061008e576000357c0100000000000000000000000000000000000000000000000000000000900463ffffffff1680632c4e722e146100995780633197cbb6146100c25780634042b66f146100eb578063521eb2731461011457806378e9792514610169578063ec8ac4d814610192578063ecb70fb7146101c0578063fc0c546a146101ed575b61009733610242565b005b34156100a457600080fd5b6100ac610412565b6040518082815260200191505060405180910390f35b34156100cd57600080fd5b6100d5610418565b6040518082815260200191505060405180910390f35b34156100f657600080fd5b6100fe61041e565b6040518082815260200191505060405180910390f35b341561011f57600080fd5b610127610424565b604051808273ffffffffffffffffffffffffffffffffffffffff1673ffffffffffffffffffffffffffffffffffffffff16815260200191505060405180910390f35b341561017457600080fd5b61017c61044a565b6040518082815260200191505060405180910390f35b6101be600480803573ffffffffffffffffffffffffffffffffffffffff16906020019091905050610242565b005b34156101cb57600080fd5b6101d3610450565b604051808215151515815260200191505060405180910390f35b34156101f857600080fd5b61020061045c565b604051808273ffffffffffffffffffffffffffffffffffffffff1673ffffffffffffffffffffffffffffffffffffffff16815260200191505060405180910390f35b600080600073ffffffffffffffffffffffffffffffffffffffff168373ffffffffffffffffffffffffffffffffffffffff161415151561028157600080fd5b610289610481565b151561029457600080fd5b3491506102a0826104b4565b90506102b7826005546104d290919063ffffffff16565b6005819055506000809054906101000a900473ffffffffffffffffffffffffffffffffffffffff1673ffffffffffffffffffffffffffffffffffffffff166340c10f1984836040518363ffffffff167c0100000000000000000000000000000000000000000000000000000000028152600401808373ffffffffffffffffffffffffffffffffffffffff1673ffffffffffffffffffffffffffffffffffffffff16815260200182815260200192505050602060405180830381600087803b151561038057600080fd5b5af1151561038d57600080fd5b50505060405180519050508273ffffffffffffffffffffffffffffffffffffffff163373ffffffffffffffffffffffffffffffffffffffff167f623b3804fa71d67900d064613da8f94b9617215ee90799290593e1745087ad188484604051808381526020018281526020019250505060405180910390a361040d6104f0565b505050565b60045481565b60025481565b60055481565b600360009054906101000a900473ffffffffffffffffffffffffffffffffffffffff1681565b60015481565b60006002544211905090565b6000809054906101000a900473ffffffffffffffffffffffffffffffffffffffff1681565b6000806000600154421015801561049a57506002544211155b9150600034141590508180156104ad5750805b9250505090565b60006104cb6004548361055490919063ffffffff16565b9050919050565b60008082840190508381101515156104e657fe5b8091505092915050565b600360009054906101000a900473ffffffffffffffffffffffffffffffffffffffff1673ffffffffffffffffffffffffffffffffffffffff166108fc349081150290604051600060405180830381858888f19350505050151561055257600080fd5b565b60008060008414156105695760009150610588565b828402905082848281151561057a57fe5b0414151561058457fe5b8091505b50929150505600a165627a7a723058208e1f737319f365ad47510f0738ee5aabc5949c1e2c3cecf2d9c396d2914c521d002960606040526000600360146101000a81548160ff0219169083151502179055506012600360156101000a81548160ff021916908360ff16021790555034156200004757600080fd5b60405162001a1638038062001a168339810160405280805190602001909190805182019190602001805182019190505033600360006101000a81548173ffffffffffffffffffffffffffffffffffffffff021916908373ffffffffffffffffffffffffffffffffffffffff160217905550826001819055508160049080519060200190620000d7929190620000fa565b508060059080519060200190620000f0929190620000fa565b50505050620001a9565b828054600181600116156101000203166002900490600052602060002090601f016020900481019282601f106200013d57805160ff19168380011785556200016e565b828001600101855582156200016e579182015b828111156200016d57825182559160200191906001019062000150565b5b5090506200017d919062000181565b5090565b620001a691905b80821115620001a257600081600090555060010162000188565b5090565b90565b61185d80620001b96000396000f3006060604052600436106100e6576000357c0100000000000000000000000000000000000000000000000000000000900463ffffffff16806305d2035b146100eb57806306fdde0314610118578063095ea7b3146101a657806318160ddd1461020057806323b872dd14610229578063313ce567146102a257806340c10f19146102d1578063661884631461032b57806370a08231146103855780637d64bcb4146103d25780638da5cb5b146103ff57806395d89b4114610454578063a9059cbb146104e2578063d73dd6231461053c578063dd62ed3e14610596578063f2fde38b14610602575b600080fd5b34156100f657600080fd5b6100fe61063b565b604051808215151515815260200191505060405180910390f35b341561012357600080fd5b61012b61064e565b6040518080602001828103825283818151815260200191508051906020019080838360005b8381101561016b578082015181840152602081019050610150565b50505050905090810190601f1680156101985780820380516001836020036101000a031916815260200191505b509250505060405180910390f35b34156101b157600080fd5b6101e6600480803573ffffffffffffffffffffffffffffffffffffffff169060200190919080359060200190919050506106ec565b604051808215151515815260200191505060405180910390f35b341561020b57600080fd5b6102136107de565b6040518082815260200191505060405180910390f35b341561023457600080fd5b610288600480803573ffffffffffffffffffffffffffffffffffffffff1690602001909190803573ffffffffffffffffffffffffffffffffffffffff169060200190919080359060200190919050506107e8565b604051808215151515815260200191505060405180910390f35b34156102ad57600080fd5b6102b5610ba2565b604051808260ff1660ff16815260200191505060405180910390f35b34156102dc57600080fd5b610311600480803573ffffffffffffffffffffffffffffffffffffffff16906020019091908035906020019091905050610bb5565b604051808215151515815260200191505060405180910390f35b341561033657600080fd5b61036b600480803573ffffffffffffffffffffffffffffffffffffffff16906020019091908035906020019091905050610d9b565b604051808215151515815260200191505060405180910390f35b341561039057600080fd5b6103bc600480803573ffffffffffffffffffffffffffffffffffffffff1690602001909190505061102c565b6040518082815260200191505060405180910390f35b34156103dd57600080fd5b6103e5611074565b604051808215151515815260200191505060405180910390f35b341561040a57600080fd5b61041261113c565b604051808273ffffffffffffffffffffffffffffffffffffffff1673ffffffffffffffffffffffffffffffffffffffff16815260200191505060405180910390f35b341561045f57600080fd5b610467611162565b6040518080602001828103825283818151815260200191508051906020019080838360005b838110156104a757808201518184015260208101905061048c565b50505050905090810190601f1680156104d45780820380516001836020036101000a031916815260200191505b509250505060405180910390f35b34156104ed57600080fd5b610522600480803573ffffffffffffffffffffffffffffffffffffffff16906020019091908035906020019091905050611200565b604051808215151515815260200191505060405180910390f35b341561054757600080fd5b61057c600480803573ffffffffffffffffffffffffffffffffffffffff1690602001909190803590602001909190505061141f565b604051808215151515815260200191505060405180910390f35b34156105a157600080fd5b6105ec600480803573ffffffffffffffffffffffffffffffffffffffff1690602001909190803573ffffffffffffffffffffffffffffffffffffffff1690602001909190505061161b565b6040518082815260200191505060405180910390f35b341561060d57600080fd5b610639600480803573ffffffffffffffffffffffffffffffffffffffff169060200190919050506116a2565b005b600360149054906101000a900460ff1681565b60048054600181600116156101000203166002900480601f0160208091040260200160405190810160405280929190818152602001828054600181600116156101000203166002900480156106e45780601f106106b9576101008083540402835291602001916106e4565b820191906000526020600020905b8154815290600101906020018083116106c757829003601f168201915b505050505081565b600081600260003373ffffffffffffffffffffffffffffffffffffffff1673ffffffffffffffffffffffffffffffffffffffff16815260200190815260200160002060008573ffffffffffffffffffffffffffffffffffffffff1673ffffffffffffffffffffffffffffffffffffffff168152602001908152602001600020819055508273ffffffffffffffffffffffffffffffffffffffff163373ffffffffffffffffffffffffffffffffffffffff167f8c5be1e5ebec7d5bd14f71427d1e84f3dd0314c0f7b2291e5b200ac8c7c3b925846040518082815260200191505060405180910390a36001905092915050565b6000600154905090565b60008073ffffffffffffffffffffffffffffffffffffffff168373ffffffffffffffffffffffffffffffffffffffff161415151561082557600080fd5b6000808573ffffffffffffffffffffffffffffffffffffffff1673ffffffffffffffffffffffffffffffffffffffff16815260200190815260200160002054821115151561087257600080fd5b600260008573ffffffffffffffffffffffffffffffffffffffff1673ffffffffffffffffffffffffffffffffffffffff16815260200190815260200160002060003373ffffffffffffffffffffffffffffffffffffffff1673ffffffffffffffffffffffffffffffffffffffff1681526020019081526020016000205482111515156108fd57600080fd5b61094e826000808773ffffffffffffffffffffffffffffffffffffffff1673ffffffffffffffffffffffffffffffffffffffff168152602001908152602001600020546117fa90919063ffffffff16565b6000808673ffffffffffffffffffffffffffffffffffffffff1673ffffffffffffffffffffffffffffffffffffffff168152602001908152602001600020819055506109e1826000808673ffffffffffffffffffffffffffffffffffffffff1673ffffffffffffffffffffffffffffffffffffffff1681526020019081526020016000205461181390919063ffffffff16565b6000808573ffffffffffffffffffffffffffffffffffffffff1673ffffffffffffffffffffffffffffffffffffffff16815260200190815260200160002081905550610ab282600260008773ffffffffffffffffffffffffffffffffffffffff1673ffffffffffffffffffffffffffffffffffffffff16815260200190815260200160002060003373ffffffffffffffffffffffffffffffffffffffff1673ffffffffffffffffffffffffffffffffffffffff168152602001908152602001600020546117fa90919063ffffffff16565b600260008673ffffffffffffffffffffffffffffffffffffffff1673ffffffffffffffffffffffffffffffffffffffff16815260200190815260200160002060003373ffffffffffffffffffffffffffffffffffffffff1673ffffffffffffffffffffffffffffffffffffffff168152602001908152602001600020819055508273ffffffffffffffffffffffffffffffffffffffff168473ffffffffffffffffffffffffffffffffffffffff167fddf252ad1be2c89b69c2b068fc378daa952ba7f163c4a11628f55a4df523b3ef846040518082815260200191505060405180910390a3600190509392505050565b600360159054906101000a900460ff1681565b6000600360009054906101000a900473ffffffffffffffffffffffffffffffffffffffff1673ffffffffffffffffffffffffffffffffffffffff163373ffffffffffffffffffffffffffffffffffffffff16141515610c1357600080fd5b600360149054906101000a900460ff16151515610c2f57600080fd5b610c448260015461181390919063ffffffff16565b600181905550610c9b826000808673ffffffffffffffffffffffffffffffffffffffff1673ffffffffffffffffffffffffffffffffffffffff1681526020019081526020016000205461181390919063ffffffff16565b6000808573ffffffffffffffffffffffffffffffffffffffff1673ffffffffffffffffffffffffffffffffffffffff168152602001908152602001600020819055508273ffffffffffffffffffffffffffffffffffffffff167f0f6798a560793a54c3bcfe86a93cde1e73087d944c0ea20544137d4121396885836040518082815260200191505060405180910390a28273ffffffffffffffffffffffffffffffffffffffff16600073ffffffffffffffffffffffffffffffffffffffff167fddf252ad1be2c89b69c2b068fc378daa952ba7f163c4a11628f55a4df523b3ef846040518082815260200191505060405180910390a36001905092915050565b600080600260003373ffffffffffffffffffffffffffffffffffffffff1673ffffffffffffffffffffffffffffffffffffffff16815260200190815260200160002060008573ffffffffffffffffffffffffffffffffffffffff1673ffffffffffffffffffffffffffffffffffffffff16815260200190815260200160002054905080831115610eac576000600260003373ffffffffffffffffffffffffffffffffffffffff1673ffffffffffffffffffffffffffffffffffffffff16815260200190815260200160002060008673ffffffffffffffffffffffffffffffffffffffff1673ffffffffffffffffffffffffffffffffffffffff16815260200190815260200160002081905550610f40565b610ebf83826117fa90919063ffffffff16565b600260003373ffffffffffffffffffffffffffffffffffffffff1673ffffffffffffffffffffffffffffffffffffffff16815260200190815260200160002060008673ffffffffffffffffffffffffffffffffffffffff1673ffffffffffffffffffffffffffffffffffffffff168152602001908152602001600020819055505b8373ffffffffffffffffffffffffffffffffffffffff163373ffffffffffffffffffffffffffffffffffffffff167f8c5be1e5ebec7d5bd14f71427d1e84f3dd0314c0f7b2291e5b200ac8c7c3b925600260003373ffffffffffffffffffffffffffffffffffffffff1673ffffffffffffffffffffffffffffffffffffffff16815260200190815260200160002060008873ffffffffffffffffffffffffffffffffffffffff1673ffffffffffffffffffffffffffffffffffffffff168152602001908152602001600020546040518082815260200191505060405180910390a3600191505092915050565b60008060008373ffffffffffffffffffffffffffffffffffffffff1673ffffffffffffffffffffffffffffffffffffffff168152602001908152602001600020549050919050565b6000600360009054906101000a900473ffffffffffffffffffffffffffffffffffffffff1673ffffffffffffffffffffffffffffffffffffffff163373ffffffffffffffffffffffffffffffffffffffff161415156110d257600080fd5b600360149054906101000a900460ff161515156110ee57600080fd5b6001600360146101000a81548160ff0219169083151502179055507fae5184fba832cb2b1f702aca6117b8d265eaf03ad33eb133f19dde0f5920fa0860405160405180910390a16001905090565b600360009054906101000a900473ffffffffffffffffffffffffffffffffffffffff1681565b60058054600181600116156101000203166002900480601f0160208091040260200160405190810160405280929190818152602001828054600181600116156101000203166002900480156111f85780601f106111cd576101008083540402835291602001916111f8565b820191906000526020600020905b8154815290600101906020018083116111db57829003601f168201915b505050505081565b60008073ffffffffffffffffffffffffffffffffffffffff168373ffffffffffffffffffffffffffffffffffffffff161415151561123d57600080fd5b6000803373ffffffffffffffffffffffffffffffffffffffff1673ffffffffffffffffffffffffffffffffffffffff16815260200190815260200160002054821115151561128a57600080fd5b6112db826000803373ffffffffffffffffffffffffffffffffffffffff1673ffffffffffffffffffffffffffffffffffffffff168152602001908152602001600020546117fa90919063ffffffff16565b6000803373ffffffffffffffffffffffffffffffffffffffff1673ffffffffffffffffffffffffffffffffffffffff1681526020019081526020016000208190555061136e826000808673ffffffffffffffffffffffffffffffffffffffff1673ffffffffffffffffffffffffffffffffffffffff1681526020019081526020016000205461181390919063ffffffff16565b6000808573ffffffffffffffffffffffffffffffffffffffff1673ffffffffffffffffffffffffffffffffffffffff168152602001908152602001600020819055508273ffffffffffffffffffffffffffffffffffffffff163373ffffffffffffffffffffffffffffffffffffffff167fddf252ad1be2c89b69c2b068fc378daa952ba7f163c4a11628f55a4df523b3ef846040518082815260200191505060405180910390a36001905092915050565b60006114b082600260003373ffffffffffffffffffffffffffffffffffffffff1673ffffffffffffffffffffffffffffffffffffffff16815260200190815260200160002060008673ffffffffffffffffffffffffffffffffffffffff1673ffffffffffffffffffffffffffffffffffffffff1681526020019081526020016000205461181390919063ffffffff16565b600260003373ffffffffffffffffffffffffffffffffffffffff1673ffffffffffffffffffffffffffffffffffffffff16815260200190815260200160002060008573ffffffffffffffffffffffffffffffffffffffff1673ffffffffffffffffffffffffffffffffffffffff168152602001908152602001600020819055508273ffffffffffffffffffffffffffffffffffffffff163373ffffffffffffffffffffffffffffffffffffffff167f8c5be1e5ebec7d5bd14f71427d1e84f3dd0314c0f7b2291e5b200ac8c7c3b925600260003373ffffffffffffffffffffffffffffffffffffffff1673ffffffffffffffffffffffffffffffffffffffff16815260200190815260200160002060008773ffffffffffffffffffffffffffffffffffffffff1673ffffffffffffffffffffffffffffffffffffffff168152602001908152602001600020546040518082815260200191505060405180910390a36001905092915050565b6000600260008473ffffffffffffffffffffffffffffffffffffffff1673ffffffffffffffffffffffffffffffffffffffff16815260200190815260200160002060008373ffffffffffffffffffffffffffffffffffffffff1673ffffffffffffffffffffffffffffffffffffffff16815260200190815260200160002054905092915050565b600360009054906101000a900473ffffffffffffffffffffffffffffffffffffffff1673ffffffffffffffffffffffffffffffffffffffff163373ffffffffffffffffffffffffffffffffffffffff161415156116fe57600080fd5b600073ffffffffffffffffffffffffffffffffffffffff168173ffffffffffffffffffffffffffffffffffffffff161415151561173a57600080fd5b8073ffffffffffffffffffffffffffffffffffffffff16600360009054906101000a900473ffffffffffffffffffffffffffffffffffffffff1673ffffffffffffffffffffffffffffffffffffffff167f8be0079c531659141344cd1fd0a4f28419497f9722a3daafe3b4186f6b6457e060405160405180910390a380600360006101000a81548173ffffffffffffffffffffffffffffffffffffffff021916908373ffffffffffffffffffffffffffffffffffffffff16021790555050565b600082821115151561180857fe5b818303905092915050565b600080828401905083811015151561182757fe5b80915050929150505600a165627a7a72305820e0d27aa9943fe8306f15a97d009cc206f5fdbab649481f452770eb2bf147b4b90029a165627a7a7230582095c8e256a43a38a704b60371bb46037067ff31995ae955741adb612d0515cd7a0029",
  "source": "pragma solidity ^0.4.18;\r\n\r\nimport './TokenSale.sol';\r\n\r\ncontract SaleRegistry {\r\n    address public owner;\r\n        \r\n    struct TokenInfo {\r\n        string name;\r\n        string url;\r\n        address tokenAddress;\r\n        address saleAddress;\r\n        uint timeAdded;\r\n    }\r\n    \r\n    TokenInfo[] public tokens;\r\n    \r\n    event newTokenSale(uint number);\r\n    \r\n    modifier onlyOwner() {\r\n        require(msg.sender == owner);\r\n        _;\r\n    }\r\n    \r\n    function SaleRegistry() public {\r\n        owner = msg.sender;\r\n    }\r\n    \r\n    function addToken(uint256 _rate, address _wallet, uint256 _supply, string _name, string _symbol, string _url) public onlyOwner {\r\n        Crowdsale sale = new TokenSale(_rate, _wallet, _supply, _name, _symbol);\r\n        tokens.push(TokenInfo({name: _name, url: _url, tokenAddress:address(sale.token), saleAddress:address(sale), timeAdded:now}));\r\n        newTokenSale(tokens.length - 1);\r\n    }\r\n    \r\n    function getToken(uint number) public view returns (string name, string url, address tokenAddress, address saleAddress, uint timeAdded) {\r\n        TokenInfo token = tokens[number];\r\n        return (token.name, token.url, token.tokenAddress, token.saleAddress, token.timeAdded);\r\n    }\r\n\r\n}",
  "sourcePath": "/home/one1up/Projects/IcoGenerator/contracts/SaleRegistry.sol",
  "compiler": {
    "name": "solc",
    "version": "0.4.21+commit.dfe3193c.Emscripten.clang"
  },
  "schemaVersion": "2.0.0",
  "updatedAt": "2018-04-01T20:50:25.208Z"
}